:100EE80021007830990020008C0120008E0122001A
:100EF8008C0122008E01230004308C0023008E0117
:100F08002100C3309E002200823097002100CB30A0
:100F18008C002100C0308E00210009309D00200087
:100F2800F201F301FF30F20021009D149D189A2F61
:100F380021001C08F60021001B08F7002000F00122
:100F4800F1017708F039F80076080339F804F80E4B
:100F580020000630780222000318B42F0C12B52F97
:100F68000C1620000830780222000318BD2F8C12BE
:100F7800BE2F8C1620000A30780222000318C62FD4
:100F88000E10C72F0E1420000C3078022200031810
:100F9800CF2F8E10D02F8E1420000E307802220012
:100FA8000318D82F0E11D92F0E15200010307802F3
:100FB80022000318E12F8E11E22F8E152000123027
:100FC800780222000318EA2F0E12EB2F0E162000CB
:100FD8001430780222000318F32F8E12F42F8E1685
:100FE800F627982F20000F30F4000F30F500F40B8F
:080FF800FE33F50BFC33080089
:020000040001F9
:04000E00C43FFF1DCF
:00000001FF
