:100F180021007830990020008C0120008E012200E9
:100F28008C0122008E01230004308C0023008E01E6
:100F38002100C3309E002200823097002100CB3070
:100F48008C002100C0308E00210009309D00200057
:100F5800F201F301FF30F20021009D149D18B22F19
:100F680021001C08F60021001B08F7002000F001F2
:100F7800F1017708F039F80076080339F804F80E1B
:100F880020007016700822008C00F6272000F0164A
:100F9800700822008C00F6272000711471082200C6
:100FA8008E00F6272000F114710822008E00F62723
:100FB80020007115710822008E00F6272000F11517
:100FC800710822008E00F627200071167108220091
:100FD8008E00F6272000F116710822008E00F627F1
:100FE800F627B02F2000FF30F400FF30F500F40B97
:080FF800FE33F50BFC33080089
:020000040001F9
:04000E00C43FFF1DCF
:00000001FF
