:100EFC0021007830990020008C0120008E01220006
:100F0C008C0122008E01230004308C0023008E0102
:100F1C002100C0309E002100CB308C002100C0305D
:100F2C008E00210009309D002000F201F301FF30FA
:100F3C00F20021009D149D18A12F21001B08F039EF
:100F4C00F60021001C080339F604F60E20000330CD
:100F5C00760222000318B42F0C12B52F0C162000A9
:100F6C000530760222000318BD2F8C12BE2F8C1672
:100F7C0020000730760222000318C62F0E10C72F50
:100F8C000E1420000930760222000318CF2F8E1089
:100F9C00D02F8E1420000B30760222000318D82F8D
:100FAC000E11D92F0E1520000D30760222000318D9
:100FBC00E12F8E11E22F8E1520000F3076022200C9
:100FCC000318EA2F0E12EB2F0E16200011307602AA
:100FDC0022000318F32F8E12F42F8E16F6279F2F54
:100FEC002000FF30F400FF30F500F40BFE33F50B5E
:040FFC00FC330800BA
:020000040001F9
:04000E00C43FFF1DCF
:00000001FF
